:0400000063EF00F0BA
:060008003782CFED05F088
:100018003780D8CF13F0E8CF14F0E0CF15F0FACF3F
:1000280016F0FBCF17F0E9CF18F0EACF19F0E1CFBF
:100038001AF0E2CF1BF0D9CF1CF0DACF1DF0F3CFC6
:100048001EF0F4CF1FF0F6CF20F0F7CF21F0F8CF55
:1000580022F0F5CF23F037C024F038C025F039C09E
:1000680026F03AC027F027C03AF026C039F025C05C
:1000780038F024C037F023C0F5FF22C0F8FF21C0B4
:10008800F7FF20C0F6FF1FC0F4FF1EC0F3FF1DC01E
:10009800DAFF1CC0D9FF1BC0E2FF1AC0E1FF19C07C
:1000A800EAFF18C0E9FF17C0FBFF16C0FAFF15C02A
:1000B800E0FF14C0E8FF13C0D8FF37901000D9EF55
:0200C80006F040
:100300000000000000C80000000000C80000003825
:10031000FF01000A006400E803102706005434308F
:0B032000300D00256400230050000099
:10032C0089EC07F0000E0001FD6F000EFC6F000E53
:10033C00FD6F000EFC6F1B0EF66E030EF76E0900C0
:10034C00F550FC5D0900F550FD59D8B0BFD1000E39
:10035C002E6E010E2F6E260E306E030E316E59EC82
:10036C0006F0000E2E6E010E2F6EFCC028F0FDC0A4
:10037C0029F0000E2B6E150E2A6E65EC07F0020E9E
:10038C002826000E2922600E2824306E000E29200B
:10039C00316E59EC06F0000E2E6E010E2F6E280EEB
:1003AC00306E030E316E59EC06F0FCC028F0FDC027
:1003BC0029F0000E2B6E150E2A6E65EC07F0110E4F
:1003CC002826000E2922600E2824D96E000E292022
:1003DC00DA6EDECFF8F0DDCFF9F0FCC028F0FDC00E
:1003EC0029F0000E2B6E150E2A6E65EC07F0600ED0
:1003FC002824D96E000E2920DA6EDECF35F0DDCF41
:10040C0036F0D89035363636080E3526000E3622A4
:10041C00010E3524F66E030E3620F76E0900F5CF6B
:10042C00FAF00A00F5CFFBF0F8C028F0F9C029F07B
:10043C00FAC02AF0FBC02BF065EC07F028C0EBF0FB
:10044C0029C0ECF0FCC028F0FDC029F0000E2B6E8A
:10045C00150E2A6E65EC07F00B0E2826000E2922CD
:10046C00600E2824D96E000E2920DA6EDECF35F00E
:10047C00DDCF36F00001EB513524ED6FEC51362019
:10048C00EE6FF30EDE6F000EDF6F230EE06F030EC8
:10049C00E16FEDC0E2F0EEC0E3F0D7EC04F0000E3B
:1004AC002E6E010E2F6EF30E306E000E316E59EC67
:1004BC0006F0000E2E6E010E2F6E260E306E030E01
:1004CC00316E59EC06F0000E2E6E010E2F6EFCC034
:1004DC0028F0FDC029F0000E2B6E150E2A6E65EC6F
:1004EC0007F0050E2826000E2922600E2824306EF7
:1004FC00000E2920316E59EC06F0000E2E6E010E06
:10050C002F6E280E306E030E316E59EC06F0FCC0C7
:10051C0028F0FDC029F0000E2B6E150E2A6E65EC2E
:10052C0007F0130E2826000E2922600E2824D96EFF
:10053C00000E2920DA6EDECFF8F0DDCFF9F0FCC02A
:10054C0028F0FDC029F0000E2B6E150E2A6E65ECFE
:10055C0007F0600E2824D96E000E2920DA6EDECF4B
:10056C0035F0DDCF36F0D89035363636010E3524E1
:10057C00F66E030E3620F76E0900F5CFFAF00A007E
:10058C00F5CFFBF0F8C028F0F9C029F0FAC02AF03A
:10059C00FBC02BF065EC07F028C0EFF029C0F0F0A1
:1005AC00FCC028F0FDC029F0000E2B6E150E2A6E33
:1005BC0065EC07F00D0E2826000E2922600E28246B
:1005CC00D96E000E2920DA6EDECF35F0DDCF36F095
:1005DC000001EF513524F16FF0513620F26FF30E1C
:1005EC00DE6F000EDF6F230EE06F030EE16FF1C0C4
:1005FC00E2F0F2C0E3F0D7EC04F0000E2E6E010E28
:10060C002F6EF30E306E000E316E59EC06F0000EAC
:10061C002E6E010E2F6E260E306E030E316E59ECBF
:10062C0006F0000E2E6E010E2F6EFCC028F0FDC0E1
:10063C0029F0000E2B6E150E2A6E65EC07F0080ED5
:10064C002826000E2922600E2824306E000E292048
:10065C00316E59EC06F0000E2E6E010E2F6E280E28
:10066C00306E030E316E59EC06F0F30E0001DE6FA6
:10067C00000EDF6F230EE06F030EE16FFCC028F05D
:10068C00FDC029F0000E2B6E150E2A6E65EC07F0DE
:10069C000F0E2826000E2922600E2824D96E000E7B
:1006AC002920DA6EDECFE2F0DDCFE3F0D7EC04F0F8
:1006BC00000E2E6E010E2F6EF30E306E000E316E8C
:1006CC0059EC06F00001FC4BFD2B35D6000E2E6EBE
:1006DC00010E2F6E1D0E306E030E316E59EC06F0AE
:1006EC001200000E0001F16F000EF06F000EF16FA2
:1006FC00000EF06F1B0EF66E030EF76E0900F55030
:10070C00F05D0900F550F159D8B0120089EC07F0F2
:10071C00000E2E6E010E2F6E260E306E030E316EF5
:10072C0059EC06F0000E2E6E010E2F6EF0C028F064
:10073C00F1C029F0000E2B6E150E2A6E65EC07F039
:10074C00020E2826000E2922600E2824306E000E80
:10075C002920316E59EC06F0000E2E6E010E2F6E14
:10076C00280E306E030E316E59EC06F0EB0E0001C4
:10077C00DE6F000EDF6F230EE06F030EE16FF0C033
:10078C0028F0F1C029F0000E2B6E150E2A6E65ECC8
:10079C0007F00B0E2826000E2922600E2824D96E95
:1007AC00000E2920DA6EDECFE2F0DDCFE3F0D7ECDD
:1007BC0004F0000E2E6E010E2F6EEB0E306E000E3E
:1007CC00316E59EC06F0000E2E6E010E2F6E210EBE
:1007DC00306E030E316E59EC06F0000E2E6E010ECB
:1007EC002F6E85EC06F089EC07F0000E2E6E010ED4
:1007FC002F6E260E306E030E316E59EC06F0000E85
:10080C002E6E010E2F6EF0C028F0F1C029F0000EF4
:10081C002B6E150E2A6E65EC07F0050E2826000EC1
:10082C002922600E2824306E000E2920316E59ECDE
:10083C0006F0000E2E6E010E2F6E280E306E030E7B
:10084C00316E59EC06F0EB0E0001DE6F000EDF6F1F
:10085C00230EE06F030EE16FF0C028F0F1C029F019
:10086C00000E2B6E150E2A6E65EC07F00D0E282669
:10087C00000E2922600E2824D96E000E2920DA6E73
:10088C00DECFE2F0DDCFE3F0D7EC04F0000E2E6EFD
:10089C00010E2F6EEB0E306E000E316E59EC06F021
:1008AC00000E2E6E010E2F6E210E306E030E316E69
:1008BC0059EC06F0000E2E6E010E2F6E85EC06F034
:1008CC0089EC07F0000E2E6E010E2F6E260E306E88
:1008DC00030E316E59EC06F0000E2E6E010E2F6ECB
:1008EC00F0C028F0F1C029F0000E2B6E150E2A6E08
:1008FC0065EC07F0080E2826000E2922600E28242D
:10090C00306E000E2920316E59EC06F0000E2E6E62
:10091C00010E2F6E280E306E030E316E59EC06F060
:10092C00EB0E0001DE6F000EDF6F230EE06F030E87
:10093C00E16FF0C028F0F1C029F0000E2B6E150EFF
:10094C002A6E65EC07F00F0E2826000E2922600E89
:10095C002824D96E000E2920DA6EDECFE2F0DDCF2E
:10096C00E3F0D7EC04F0000E2E6E010E2F6EEB0EA2
:10097C00306E000E316E59EC06F0000E2E6E010E2C
:10098C002F6E210E306E030E316E59EC06F0000EF8
:10099C002E6E010E2F6E85EC06F00001F04BF12B44
:1009AC00A9D6E20E0001E46F000EE56F8DD0250E86
:1009BC00EA19D8B409D0DEC0D9FFDFC0DAFFEAC02B
:1009CC00DFFFDE4BDF2B80D0000EE66FE0C0F6FFC2
:1009DC00E1C0F7FFE04BE12B0800F5CFEAF0EA515C
:1009EC00000AD8B47DD0640AD8B403D00D0AD8A4B8
:1009FC006BD0E4C0D9FFE5C0DAFFDECFE8F0DDCF85
:100A0C00E9F0020EE427000EE523E9AF06D0030E51
:100A1C00E613E86DE91FD8B0E92B010EEA6F050E5D
:100A2C00EA19D8B412D0EA51020D110EF324F66E65
:100A3C00030EF420F76E0900F550E85D0900F5503F
:100A4C00E959D8A002D0EA2BEAD7E6C034F0030E5D
:100A5C003416D8B408D0DEC0D9FFDFC0DAFF2D0EB3
:100A6C00DF6EDE4BDF2BEAC0E7F02AD0E751020D38
:100A7C00110EF324F66E030EF420F76E0900F5CF79
:100A8C002AF00A00F5CF2BF0E8C028F0E9C029F0D5
:100A9C00B0EC06F028C02FF029C030F0000E326EFA
:100AAC000A0E316EFAEC06F02F50300F0001EA6F8F
:100ABC00DEC0D9FFDFC0DAFFEAC0DFFFDE4BDF2B81
:100ACC00E707E729D8A4D2D7E0C0F6FFE1C0F7FFCB
:100ADC00E04BE12B0800F5CFEAF0EA51D8A467D738
:100AEC00DEC0D9FFDFC0DAFF000EDF6E1200000E91
:100AFC00316E000E306E1B0EF66E030EF76E090093
:100B0C00F550305C0900F5503158D8B0120030C0A7
:100B1C0028F031C029F0000E2B6E150E2A6E65ECF4
:100B2C0007F0600E2824D96E000E2920DA6E010E13
:100B3C00DB5018E1030EDE5CD8B014D030C028F0C6
:100B4C0031C029F0000E2B6E150E2A6E65EC07F0E5
:100B5C00600E2824D96E000E2920DA6EDE2A000ED3
:100B6C00DD2214D030C028F031C029F0000E2B6EDD
:100B7C00150E2A6E65EC07F0600E2824D96E000E57
:100B8C002920DA6E000EDE6E000EDD6E304A312A40
:100B9C00B2D70600FACF01F0FBCF02F0E9CF03F099
:100BAC00EACF04F0E1CF05F0E2CF06F0D9CF07F0A1
:100BBC00DACF08F0F3CF09F0F4CF0AF0F6CF0BF050
:100BCC00F7CF0CF0F8CF0DF0F5CF0EF037C00FF0DB
:100BDC0038C010F039C011F03AC012F012C03AF01F
:100BEC0011C039F010C038F00FC037F00EC0F5FF4F
:100BFC000DC0F8FF0CC0F7FF0BC0F6FF0AC0F4FFE6
:100C0C0009C0F3FF08C0DAFF07C0D9FF06C0E2FF36
:100C1C0005C0E1FF04C0EAFF03C0E9FF02C0FBFF0F
:100C2C0001C0FAFF37921100000031320031000090
:100C3C00320000A4069808080701000100020034E5
:100C4C00000035000036000046054006A4060100F1
:100C5C0001000000380000390000313000E803408A
:100C6C00060807010001000200313600313700315F
:100C7C0038004006B004DC05FFFFFFFF00003230F7
:100C8C000032310032320034081405E803FFFFFF54
:100C9C00FF02003234003235003236006C07780522
:100CAC00E803FFFFFFFF2EC032F02FC033F002D05D
:100CBC00324A332A32C0D9FF33C0DAFFDF50D8B4FE
:100CCC0005D0F6D7324A332A304A312A30C0F6FFE3
:100CDC0031C0F7FFF86A32C0D9FF33C0DAFF020E19
:100CEC00F76403D00800F55005D0F6CFE1FFF7CF3D
:100CFC00E2FFE750DF6EDF50D8B41200E3D72EC00E
:100D0C0028F02FC029F01BEC07F028C031F029C0C7
:100D1C0032F0000E346E000E336E11D033502E2490
:100D2C00D96E34502F20DA6EDF50356E3550A5EC6D
:100D3C0007F00D0E3518D8B41200334A342A31504E
:100D4C00335C3450800A306E3250800A3058D8B040
:100D5C001200E4D7000E2D6E000E2C6E2A502B10B4
:100D6C00D8B41CD0010E2E6E04D0D8902A362B3657
:100D7C002E2A2BAEFAD7D8902C362D362A50285C3A
:100D8C002B502958D8A005D02A50285E2B50295A10
:100D9C002C80D8902B322A322E2EEDD72CC028F056
:100DAC002DC029F01200340EF66E0C0EF76E000EEC
:100DBC00F86E00EE60F010EE7EF00900F5CFEEFF5D
:100DCC00E550E150FAE101EE00F011EE00F0EE6AB0
:100DDC00E550E150FCE1E250FAE137903792000E19
:100DEC00F86E000178EF07F031503210D8B418D0FB
:100DFC00010E336E04D0D89031363236332A32AEEF
:100E0C00FAD731502F5C32503058D8A004D0315022
:100E1C002F5E3250305AD89032323132332EF1D7D5
:100E2C002FC02FF030C030F0120028C02CF029C099
:100E3C002DF002D02C4A2D2A2CC0D9FF2DC0DAFF60
:100E4C00DF50D8A4F7D728C02AF029C02BF02A1ECF
:100E5C002B1E2A4A2B2A2C502A24286E2D502B204C
:100E6C00296E1200B886AC84330EAF6E000EB06ED5
:100E7C00AC98AB8EAC8A949C948E030E296E8A0E21
:100E8C00286E560EE82EFED7282EFCD7292EFAD720
:100E9C00120028C02EF029C02FF008D02EC0D9FF88
:100EAC002FC0DAFF2AC0DFFF2E4A2F2A2C06D8A02B
:100EBC002D062C28F3E12D28D8B41200EFD728509A
:100ECC002A02F3CF2CF0F4CF2DF028502B02F35044
:100EDC002D2629502A02F3502D262CC028F02DC087
:100EEC0029F0120098EC07F038EC07F077EC03F0DF
:100EFC0096EC01F0000E2E6E010E2F6E85EC06F0B6
:100F0C007DEC05F0F5D7000E286E010E296E000E53
:100F1C002B6E000E2A6E010E2D6E000E2C6E4FECF9
:100F2C0007F012009B8E9B9C9B909B929B949B9694
:100F3C009B98D39ED3508F0B5009D36E1200286E02
:0A0F4C00ACA2FED728C0ADFF1200D2
:020000040020DA
:08000000FFFFFFFFFFFFFFFF00
:020000040030CA
:0E000000FF891F1EFF8281FF0FC00FE00F401F
:00000001FF
