:0400000063EF00F0BA
:060008003682BFED01F09D
:100018003680D8CF13F0E8CF14F0E0CF15F0FACF40
:1000280016F0FBCF17F0E9CF18F0EACF19F0E1CFBF
:100038001AF0E2CF1BF0D9CF1CF0DACF1DF0F3CFC6
:100048001EF0F4CF1FF0F6CF20F0F7CF21F0F8CF55
:1000580022F0F5CF23F036C024F037C025F038C0A1
:1000680026F039C027F027C039F026C038F025C05F
:1000780037F024C036F023C0F5FF22C0F8FF21C0B6
:10008800F7FF20C0F6FF1FC0F4FF1EC0F3FF1DC01E
:10009800DAFF1CC0D9FF1BC0E2FF1AC0E1FF19C07C
:1000A800EAFF18C0E9FF17C0FBFF16C0FAFF15C02A
:1000B800E0FF14C0E8FF13C0D8FF3690100089EFA6
:0200C80002F044
:10030000000100300031003200DC05140508070050
:10031000000000000002003400350036007805407F
:1003200006A4060000000000000300380039003178
:1003300030E8034006080700000000000004003118
:1003400036313731387805B004DC05000000000094
:10035000000500323032313232D0071405E8030094
:10036000000000000006003234323532366C077867
:1003700005E8030000000000000600000100060080
:10038000FACF01F0FBCF02F0E9CF03F0EACF04F09F
:10039000E1CF05F0E2CF06F0D9CF07F0DACF08F0D1
:1003A000F3CF09F0F4CF0AF0F6CF0BF0F7CF0CF053
:1003B000F8CF0DF0F5CF0EF036C00FF037C010F0CB
:1003C00038C011F039C012F012C039F011C038F045
:1003D00010C037F00FC036F00EC0F5FF0DC0F8FFAB
:1003E0000CC0F7FF0BC0F6FF0AC0F4FF09C0F3FF13
:1003F00008C0DAFF07C0D9FF06C0E2FF05C0E1FF71
:1004000004C0EAFF03C0E9FF02C0FBFF01C0FAFF1E
:100410003692110028C02CF029C02DF002D02C4AB1
:100420002D2A2CC0D9FF2DC0DAFFDF50D8A4F7D772
:1004300028C02AF029C02BF02A1E2B1E2A4A2B2A5C
:100440002C502A24286E2D502B20296E1200000ECD
:10045000316E000E306E0AD030502E24D96E3150DD
:100460002F20DA6E0D0EDF6E304A312A2EC028F0B2
:100470002FC029F00AEC02F02850305C2950315886
:10048000D8B01200E9D79CEC02F0B7EC02F05BECBC
:1004900002F072EC02F0B0EC02F0A9EC02F0030EF4
:1004A000356E8A0E346E560EE82EFED7342EFCD7EB
:1004B000352EFAD7F2D7B886AC84330EAF6E000E65
:1004C000B06EAC98AB8EAC8A949C948E030E296E61
:1004D0008A0E286E560EE82EFED7282EFCD7292E1F
:1004E000FAD71200000E2E6E010E2F6E27EC02F0CE
:1004F000000E336E000E326E790EF66E0900F55066
:10050000325C0900F5503358D8B01200324A332A11
:10051000F3D701EE00F012EE00F0EE6AE550E15084
:10052000FCE1E250FAE136903692000EF86E030ECE
:10053000F76E000143EF02F09B8E9B9C9B909B9279
:100540009B949B969B98D39ED3508F0B5009D36E50
:100550001200000E2E6E010E2F6E27EC02F012001C
:10056000000E2E6E010E2F6E27EC02F0120012000C
:020000040020DA
:08000000FFFFFFFFFFFFFFFF00
:020000040030CA
:0E000000FF891F1EFF8281FF0FC00FE00F401F
:00000001FF
