:0400000063EF00F0BA
:06000800388230ED05F026
:100018003880D8CF13F0E8CF14F0E0CF15F0FACF3E
:1000280016F0FBCF17F0E9CF18F0EACF19F0E1CFBF
:100038001AF0E2CF1BF0D9CF1CF0DACF1DF0F3CFC6
:100048001EF0F4CF1FF0F6CF20F0F7CF21F0F8CF55
:1000580022F0F5CF23F038C024F039C025F03AC09B
:1000680026F03BC027F027C03BF026C03AF025C059
:1000780039F024C038F023C0F5FF22C0F8FF21C0B2
:10008800F7FF20C0F6FF1FC0F4FF1EC0F3FF1DC01E
:10009800DAFF1CC0D9FF1BC0E2FF1AC0E1FF19C07C
:1000A800EAFF18C0E9FF17C0FBFF16C0FAFF15C02A
:1000B800E0FF14C0E8FF13C0D8FF3890100095EF98
:0200C80006F040
:100300000000000000C80000000000C80000003825
:10031000FF01000A006400E8031027060001003115
:10032000320031000032000008079808080700007A
:100330000000000000000000010034000035000053
:1003400036000078054006A406000000000000000A
:100350000000000100380000390000313000E803DF
:100360004006080700000000000000000000010037
:100370003136003137003138007805B004DC050033
:1003800000000000000000000001003230003231A7
:1003900000323200D0071405E8030000000000001E
:1003A0000000000001003234003235003236006CAB
:1003B000077805E80300000000000000000000547A
:1003C000323030300D002564002300500000000E54
:1003D0000001736F000E726F000E736F000E726F6C
:1003E0001B0EF66E030EF76E0900F550725D0900E4
:1003F000F5507359D8B01200A6EC06F0000E2E6E20
:10040000010E2F6EC90E306E030E316E7BEC05F0BF
:10041000000E2E6E010E2F6E72C028F073C029F0F0
:10042000000E2B6E1B0E2A6E82EC06F0020E2826A2
:10043000000E29221D0E2824306E030E2920316E55
:100440007BEC05F0000E2E6E010E2F6ECB0E306E83
:10045000030E316E7BEC05F06D0E0001606F000E37
:10046000616FC60E626F030E636F72C028F073C0B7
:1004700029F0000E2B6E1B0E2A6E82EC06F00B0E7E
:100480002826000E29221D0E2824F66E030E292090
:10049000F76E0900F5CF64F00A00F5CF65F08AEC3D
:1004A00004F0000E2E6E010E2F6E6D0E306E000EDB
:1004B000316E7BEC05F0000E2E6E010E2F6EC40E19
:1004C000306E030E316E7BEC05F0000E2E6E010EC9
:1004D0002F6EA7EC05F0A6EC06F0000E2E6E010EB6
:1004E0002F6EC90E306E030E316E7BEC05F0000EE0
:1004F0002E6E010E2F6E72C028F073C029F0000E10
:100500002B6E1B0E2A6E82EC06F0050E2826000EBE
:1005100029221D0E2824306E030E2920316E7BEC1B
:1005200005F0000E2E6E010E2F6ECB0E306E030EF8
:10053000316E7BEC05F06D0E0001606F000E616F97
:10054000C60E626F030E636F72C028F073C029F08D
:10055000000E2B6E1B0E2A6E82EC06F00D0E282666
:10056000000E29221D0E2824F66E030E2920F76E98
:100570000900F5CF64F00A00F5CF65F08AEC04F0CD
:10058000000E2E6E010E2F6E6D0E306E000E316E4F
:100590007BEC05F0000E2E6E010E2F6EC40E306E39
:1005A000030E316E7BEC05F0000E2E6E010E2F6EE9
:1005B000A7EC05F0A6EC06F0000E2E6E010E2F6ED5
:1005C000C90E306E030E316E7BEC05F0000E2E6E00
:1005D000010E2F6E72C028F073C029F0000E2B6E32
:1005E0001B0E2A6E82EC06F0080E2826000E292229
:1005F0001D0E2824306E030E2920316E7BEC05F091
:10060000000E2E6E010E2F6ECB0E306E030E316E6D
:100610007BEC05F06D0E0001606F000E616FC60E81
:10062000626F030E636F72C028F073C029F0000E72
:100630002B6E1B0E2A6E82EC06F00F0E2826000E83
:1006400029221D0E2824F66E030E2920F76E0900BC
:10065000F5CF64F00A00F5CF65F08AEC04F0000EE7
:100660002E6E010E2F6E6D0E306E000E316E7BEC15
:1006700005F0000E2E6E010E2F6EC40E306E030EAE
:10068000316E7BEC05F0000E2E6E010E2F6EA7EC86
:1006900005F00001724B732BA3D6A6EC06F0000EFA
:1006A0000001736F000E726F000E736F000E726F99
:1006B0001B0EF66E030EF76E0900F550725D090011
:1006C000F5507359D8B01BD1000E2E6E010E2F6E4F
:1006D000C90E306E030E316E7BEC05F0000E2E6EEF
:1006E000010E2F6E72C028F073C029F0000E2B6E21
:1006F0001B0E2A6E82EC06F0020E2826000E29221E
:100700001D0E2824306E030E2920316E7BEC05F07F
:10071000000E2E6E010E2F6ECB0E306E030E316E5C
:100720007BEC05F06D0E0001606F000E616FC60E70
:10073000626F030E636F72C028F073C029F0000E61
:100740002B6E1B0E2A6E82EC06F00B0E2826000E76
:1007500029221D0E2824F66E030E2920F76E0900AB
:10076000F5CF64F00A00F5CF65F08AEC04F0000ED6
:100770002E6E010E2F6E6D0E306E000E316E7BEC04
:1007800005F0000E2E6E010E2F6EC90E306E030E98
:10079000316E7BEC05F0000E2E6E010E2F6E72C0D6
:1007A00028F073C029F0000E2B6E1B0E2A6E82EC0F
:1007B00006F0050E2826000E29221D0E2824306E74
:1007C000030E2920316E7BEC05F0000E2E6E010E1B
:1007D0002F6ECB0E306E030E316E7BEC05F06D0E7E
:1007E0000001606F000E616FC60E626F030E636FD3
:1007F00072C028F073C029F0000E2B6E1B0E2A6EFB
:1008000082EC06F00D0E2826000E29221D0E28244B
:10081000F66E030E2920F76E0900F5CF64F00A008A
:10082000F5CF65F08AEC04F0000E2E6E010E2F6EEF
:100830006D0E306E000E316E7BEC05F0000E2E6EEC
:10084000010E2F6EC90E306E030E316E7BEC05F07B
:10085000000E2E6E010E2F6E72C028F073C029F0AC
:10086000000E2B6E1B0E2A6E82EC06F0080E282658
:10087000000E29221D0E2824306E030E2920316E11
:100880007BEC05F0000E2E6E010E2F6ECB0E306E3F
:10089000030E316E7BEC05F06D0E0001606F000EF3
:1008A000616FC60E626F030E636F72C028F073C073
:1008B00029F0000E2B6E1B0E2A6E82EC06F00F0E36
:1008C0002826000E29221D0E2824F66E030E29204C
:1008D000F76E0900F5CF64F00A00F5CF65F08AECF9
:1008E00004F0000E2E6E010E2F6E6D0E306E000E97
:1008F000316E7BEC05F00001724B732BD9D6000EE4
:100900002E6E010E2F6EBF0E306E030E316E7BEC1D
:1009100005F01200640E0001666F000E676F8DD047
:10092000250E6C19D8B409D060C0D9FF61C0DAFFB8
:100930006CC0DFFF604B612B80D0000E686F62C01F
:10094000F6FF63C0F7FF624B632B0800F5CF6CF036
:100950006C51000AD8B47DD0640AD8B403D00D0A13
:10096000D8A46BD066C0D9FF67C0DAFFDECF6AF0CB
:10097000DDCF6BF0020E6627000E67236BAF06D04B
:10098000030E68136A6D6B1FD8B06B2B010E6C6F72
:10099000050E6C19D8B412D06C51020D110EF3244F
:1009A000F66E030EF420F76E0900F5506A5D09003B
:1009B000F5506B59D8A002D06C2BEAD768C034F040
:1009C000030E3416D8B408D060C0D9FF61C0DAFF76
:1009D0002D0EDF6E604B612B6CC069F02AD069511F
:1009E000020D110EF324F66E030EF420F76E0900CB
:1009F000F5CF2AF00A00F5CF2BF06AC028F06BC0C3
:100A000029F0D2EC05F028C02FF029C030F0000EFC
:100A1000326E0A0E316EFBEC05F02F50300F0001E4
:100A20006C6F60C0D9FF61C0DAFF6CC0DFFF604B44
:100A3000612B69076929D8A4D2D762C0F6FF63C0C9
:100A4000F7FF624B632B0800F5CF6CF06C51D8A414
:100A500067D760C0D9FF61C0DAFF000EDF6E1200F9
:100A60000600FACF01F0FBCF02F0E9CF03F0EACFA6
:100A700004F0E1CF05F0E2CF06F0D9CF07F0DACFEE
:100A800008F0F3CF09F0F4CF0AF0F6CF0BF0F7CF70
:100A90000CF0F8CF0DF0F5CF0EF038C00FF039C0E4
:100AA00010F03AC011F03BC012F012C03BF011C080
:100AB0003AF010C039F00FC038F00EC0F5FF0DC08D
:100AC000F8FF0CC0F7FF0BC0F6FF0AC0F4FF09C027
:100AD000F3FF08C0DAFF07C0D9FF06C0E2FF05C078
:100AE000E1FF04C0EAFF03C0E9FF02C0FBFF01C051
:100AF000FAFF389211002EC032F02FC033F002D02E
:100B0000324A332A32C0D9FF33C0DAFFDF50D8B4BB
:100B100005D0F6D7324A332A304A312A30C0F6FFA0
:100B200031C0F7FFF86A32C0D9FF33C0DAFF020ED6
:100B3000F76403D00800F55005D0F6CFE1FFF7CFFA
:100B4000E2FFE750DF6EDF50D8B41200E3D72EC0CB
:100B500028F02FC029F01CEC06F028C031F029C085
:100B600032F0000E346E000E336E11D033502E244E
:100B7000D96E34502F20DA6EDF50356E3550C2EC0E
:100B800006F00D0E3518D8B41200334A342A31500D
:100B9000335C3450800A306E3250800A3058D8B0FE
:100BA0001200E4D7000E2D6E000E2C6E2A502B1072
:100BB000D8B41CD0010E2E6E04D0D8902A362B3615
:100BC0002E2A2BAEFAD7D8902C362D362A50285CF8
:100BD0002B502958D8A005D02A50285E2B50295ACE
:100BE0002C80D8902B322A322E2EEDD72CC028F014
:100BF0002DC029F0120031503210D8B418D0010E97
:100C0000336E04D0D89031363236332A32AEFAD72A
:100C100031502F5C32503058D8A004D031502F5E64
:100C20003250305AD89032323132332EF1D72FC071
:100C30002FF030C030F0120028C02CF029C02DF069
:100C400002D02C4A2D2A2CC0D9FF2DC0DAFFDF504C
:100C5000D8A4F7D728C02AF029C02BF02A1E2B1EB3
:100C60002A4A2B2A2C502A24286E2D502B20296EFC
:100C70001200B5EC06F0C8EC06F055EC06F0E7EC17
:100C800001F04DEC03F0000E2E6E010E2F6EA7EC5E
:100C900005F0030E376E8A0E366E560EE82EFED71E
:100CA000362EFCD7372EFAD7F4D7B886AC84330E5D
:100CB000AF6E000EB06EAC98AB8EAC8A949C948EE6
:100CC000030E296E8A0E286E560EE82EFED7282EA9
:100CD000FCD7292EFAD7120028C02EF029C02FF0F9
:100CE00008D02EC0D9FF2FC0DAFF2AC0DFFF2E4A5E
:100CF0002F2A2C06D8A02D062C28F3E12D28D8B4B5
:100D00001200EFD728502A02F3CF2CF0F4CF2DF0A9
:100D100028502B02F3502D2629502A02F3502D265D
:100D20002CC028F02DC029F0120001EE00F011EEC9
:100D300000F0EE6AE550E150FCE1E250FAE1389053
:100D40003892000EF86E000139EF06F0000E286EA2
:100D5000010E296E000E2B6E000E2A6E010E2D6EF6
:100D6000000E2C6E6CEC06F012009B8E9B9C9B90F0
:100D70009B929B949B969B98D39ED3508F0B50092C
:100D8000D36E1200286EACA2FED728C0ADFF1200B1
:020D900012004F
:020000040020DA
:08000000FFFFFFFFFFFFFFFF00
:020000040030CA
:0E000000FF891F1EFF8281FF0FC00FE00F401F
:00000001FF
