:0400000063EF00F0BA
:060008004C82D8ED00F06F
:100018004C80D8CF13F0E8CF14F0E0CF15F0FACF2A
:1000280016F0FBCF17F0E9CF18F0EACF19F0E1CFBF
:100038001AF0E2CF1BF0D9CF1CF0DACF1DF0F3CFC6
:100048001EF0F4CF1FF0F6CF20F0F7CF21F0F8CF55
:1000580022F0F5CF23F04CC024F04DC025F04EC05F
:1000680026F04FC027F027C04FF026C04EF025C01D
:100078004DF024C04CF023C0F5FF22C0F8FF21C08A
:10008800F7FF20C0F6FF1FC0F4FF1EC0F3FF1DC01E
:10009800DAFF1CC0D9FF1BC0E2FF1AC0E1FF19C07C
:1000A800EAFF18C0E9FF17C0FBFF16C0FAFF15C02A
:1000B800E0FF14C0E8FF13C0D8FF4C9010008AEF8F
:1000C80001F0B3EC01F0C7EC01F071EC01F04AC0AB
:1000D80066F04BC067F023EC01F048C066F049C0F9
:1000E80067F023EC01F046C066F047C067F023ECE8
:1000F80001F044C066F045C067F023EC01F042C04F
:1001080066F043C067F023EC01F040C066F041C0E0
:1001180067F023EC01F03EC066F03FC067F023ECC7
:1001280001F03CC066F03DC067F023EC01F03AC036
:1001380066F03BC067F023EC01F038C066F039C0C8
:1001480067F023EC01F036C066F037C067F023ECA7
:1001580001F034C066F035C067F023EC01F032C01E
:1001680066F033C067F023EC01F030C066F031C0B0
:1001780067F023EC01F02EC066F02FC067F023EC87
:1001880001F02CC066F02DC067F023EC01F02AC006
:1001980066F02BC067F023EC01F028C066F029C098
:1001A80067F023EC01F0FFD70600FACF01F0FBCF90
:1001B80002F0E9CF03F0EACF04F0E1CF05F0E2CF97
:1001C80006F0D9CF07F0DACF08F0F3CF09F0F4CF73
:1001D8000AF0F6CF0BF0F7CF0CF0F8CF0DF0F5CF13
:1001E8000EF04CC00FF04DC010F04EC011F04FC0D3
:1001F80012F012C04FF011C04EF010C04DF00FC0F9
:100208004CF00EC0F5FF0DC0F8FF0CC0F7FF0BC097
:10021800F6FF0AC0F4FF09C0F3FF08C0DAFF07C001
:10022800D9FF06C0E2FF05C0E1FF04C0EAFF03C032
:10023800E9FF02C0FBFF01C0FAFF4C92110066C043
:1002480060F067C061F050EC01F060C06AF061C016
:100258006BF0000E00016E6F000E6D6F16D06D51C1
:100268006625686F6E516721696F68C0F6FF69C0BF
:10027800F7FF0800F5CF6CF06C51D8B403D06C517F
:10028800C0EC01F000016D4B6E2B6A516D5D6B5136
:100298006E59D8B01200E3D760C064F061C065F051
:1002A80003D00001644B652B64C0F6FF65C0F7FFFF
:1002B8000800F5500009D8A4F4D760C062F061C006
:1002C80063F00001621F631F624B632B6451622558
:1002D800606F65516321616F1200B886AC84330E7C
:1002E800AF6E000EB06EAC98AB8EAC8A949C948EB8
:1002F800030E0001616F8A0E606F550EE82EFED75F
:10030800602FFCD7612FFAD700D01200420EF66E8C
:10031800030EF76E000EF86E00EE28F010EE24F0D3
:100328000900F5CFEEFFE550E150FAE14C904C9210
:10033800000EF86E000165EF00F0083F443F803F73
:10034800F93E353F173F623F263F533F713FD53F48
:10035800AB3FE33FC73FB93FF13F8F3F9D3F9B8E88
:100368009B9C9B909B929B949B969B98D39ED350CF
:100378008F0B5009D36E12000001606FACA2FED73C
:0803880060C0ADFF120012007D
:103EF80000233232503130303054333030300D00FE
:103F0800233236503130303054333030300D0023C6
:103F18003230503230303054333030300D002331AD
:103F280037503132303054333030300D0023323195
:103F3800503133303054333030300D002332355067
:103F48003134303054333030300D00233136503175
:103F580034303054333030300D002331385031355F
:103F6800303054333030300D002331305031383058
:103F78003054333030300D00233234503139303042
:103F880054333030300D0023315031333030543118
:103F98003030300D0023305031353030543130302E
:103FA800300D002338503130303054333030300D3C
:103FB800002334503134303054333030300D002346
:103FC80035503136303054333030300D00233950CD
:103FD8003136303054333030300D002336503137DD
:103FE800303054333030300D0023325031383030D7
:083FF80054333030300D00009D
:020000040020DA
:08000000FFFFFFFFFFFFFFFF00
:020000040030CA
:0E000000FF891F1EFF8281FF0FC00FE00F401F
:00000001FF
