:0400000063EF00F0BA
:060008003782B1ED01F0AA
:100018003780D8CF13F0E8CF14F0E0CF15F0FACF3F
:1000280016F0FBCF17F0E9CF18F0EACF19F0E1CFBF
:100038001AF0E2CF1BF0D9CF1CF0DACF1DF0F3CFC6
:100048001EF0F4CF1FF0F6CF20F0F7CF21F0F8CF55
:1000580022F0F5CF23F037C024F038C025F039C09E
:1000680026F03AC027F027C03AF026C039F025C05C
:1000780038F024C037F023C0F5FF22C0F8FF21C0B4
:10008800F7FF20C0F6FF1FC0F4FF1EC0F3FF1DC01E
:10009800DAFF1CC0D9FF1BC0E2FF1AC0E1FF19C07C
:1000A800EAFF18C0E9FF17C0FBFF16C0FAFF15C02A
:1000B800E0FF14C0E8FF13C0D8FF379010007CEFB2
:1000C80002F0AAEC02F0BDEC02F093EC02F0000E94
:1000D8000001CF6F000ECE6FD8900001CE35D96EDB
:1000E800CF35DA6EC60ED926000EDA22DECF2EF014
:1000F800DDCF2FF032EC02F0D8900001CE35D96E6A
:10010800CF35DA6EC00ED926000EDA22DECF2EF0F9
:10011800DDCF2FF032EC02F0D8900001CE35D96E49
:10012800CF35DA6EBA0ED926000EDA22DECF2EF0DF
:10013800DDCF2FF032EC02F0D8900001CE35D96E29
:10014800CF35DA6EB40ED926000EDA22DECF2EF0C5
:10015800DDCF2FF032EC02F0D8900001CE35D96E09
:10016800CF35DA6EAE0ED926000EDA22DECF2EF0AB
:10017800DDCF2FF032EC02F0D8900001CE35D96EE9
:10018800CF35DA6EA80ED926000EDA22DECF2EF091
:10019800DDCF2FF032EC02F0D8900001CE35D96EC9
:1001A800CF35DA6EA20ED926000EDA22DECF2EF077
:1001B800DDCF2FF032EC02F0D8900001CE35D96EA9
:1001C800CF35DA6E9C0ED926000EDA22DECF2EF05D
:1001D800DDCF2FF032EC02F0D8900001CE35D96E89
:1001E800CF35DA6E960ED926000EDA22DECF2EF043
:1001F800DDCF2FF032EC02F0D8900001CE35D96E69
:10020800CF35DA6E900ED926000EDA22DECF2EF028
:10021800DDCF2FF032EC02F0D8900001CE35D96E48
:10022800CF35DA6E8A0ED926000EDA22DECF2EF00E
:10023800DDCF2FF032EC02F0D8900001CE35D96E28
:10024800CF35DA6E840ED926000EDA22DECF2EF0F4
:10025800DDCF2FF032EC02F0D8900001CE35D96E08
:10026800CF35DA6E7E0ED926000EDA22DECF2EF0DA
:10027800DDCF2FF032EC02F0D8900001CE35D96EE8
:10028800CF35DA6E780ED926000EDA22DECF2EF0C0
:10029800DDCF2FF032EC02F0D8900001CE35D96EC8
:1002A800CF35DA6E720ED926000EDA22DECF2EF0A6
:1002B800DDCF2FF032EC02F0D8900001CE35D96EA8
:1002C800CF35DA6E6C0ED926000EDA22DECF2EF08C
:1002D800DDCF2FF032EC02F0D8900001CE35D96E88
:1002E800CF35DA6E660ED926000EDA22DECF2EF072
:1002F800DDCF2FF032EC02F0D8900001CE35D96E68
:10030800CF35DA6E600ED926000EDA22DECF2EF057
:10031800DDCF2FF032EC02F00001CE4BCF2B690E6F
:10032800F66E3D0EF76E0900F550CE5D0900F550EA
:10033800CF59D8A004D0000ECF6F000ECE6F1A0E82
:100348000001CD6F5E0ECC6F6E0EE82EFED7CC2F5F
:10035800FCD7CD2FFAD700F0BFD60600FACF01F0B0
:10036800FBCF02F0E9CF03F0EACF04F0E1CF05F0CC
:10037800E2CF06F0D9CF07F0DACF08F0F3CF09F0D3
:10038800F4CF0AF0F6CF0BF0F7CF0CF0F8CF0DF062
:10039800F5CF0EF037C00FF038C010F039C011F0AB
:1003A8003AC012F012C03AF011C039F010C038F05B
:1003B8000FC037F00EC0F5FF0DC0F8FF0CC0F7FFF7
:1003C8000BC0F6FF0AC0F4FF09C0F3FF08C0DAFF4C
:1003D80007C0D9FF06C0E2FF05C0E1FF04C0EAFF7D
:1003E80003C0E9FF02C0FBFF01C0FAFF379211000A
:1003F800303F7A3D1F3EAE3F013ED43D4C3E793EF4
:100408004C3E223F6B3D3D3E843FF23DA73D893D3A
:10041800893D893DBC3F2E3EE33D5A3FB63D983D60
:100428005B3E103E5B3EC53D6A3EA03F963E4C3F5C
:10043800D73FC03E883EC03ECE3E763FE43FA43E16
:100448003E3FCA3FEA3EEA3EEA3E063F683FF13F8A
:10045800F83E923FDC3EB23E143FB23E2EC028F03A
:100468002FC029F05DEC02F028C032F029C033F02B
:10047800000E356E000E346E15D034502E24306EBA
:1004880035502F20316E30C0F6FF31C0F7FF08001D
:10049800F5CF36F03650D8B403D03650B7EC02F06A
:1004A800344A352A3250345C33503558D8B01200AB
:1004B800E4D728C02CF029C02DF002D02C4A2D2AD0
:1004C8002CC0F6FF2DC0F7FF0800F5500009D8A48E
:1004D800F5D728C02AF029C02BF02A1E2B1E2A4A3D
:1004E8002B2A2C502A24286E2D502B20296E1200DE
:1004F800F80EF66E030EF76E000EF86E00EE60F062
:1005080010EE6CF00900F5CFEEFFE550E150FAE18E
:1005180037903792000EF86E000165EF00F0B8864C
:10052800AC84330EAF6E000EB06EAC98AB8EAC8A56
:10053800949C948E030E296E8A0E286E560EE82E11
:10054800FED7282EFCD7292EFAD712009B8E9B9C0B
:100558009B909B929B949B969B98D39ED3508F0B7A
:100568005009D36E1200286EACA2FED728C0ADFF8A
:04057800120012005B
:103D68000003002332325031303030543330303099
:103D78000D00233236503130303054333030300D6E
:103D880000233230503230303054333030300D0070
:103D9800233137503230303054333030300D002337
:103DA8003231503231303054333030300D0023311D
:103DB80037503132303054333030300D0023313009
:103DC800503232303054333030300D0023323550D9
:103DD8003232303054333030300D002331385032E5
:103DE80032303054333030300D00233231503133DB
:103DF800303054333030300D0023323550313430C8
:103E08003054333030300D002331365031343030B7
:103E180054333030300D0023323650313530305481
:103E2800333030300D002331385031353030543391
:103E38003030300D00233232503136303054333088
:103E480030300D0023323450313630305433303076
:103E5800300D002331365031373030543330303064
:103E68000D00233130503138303054333030300D7C
:103E780000233234503139303054333030300D0073
:103E88002338503130303054333030300D0023393E
:103E9800503230303054333030300D00233550320A
:103EA80031303054333030300D002330503132301F
:103EB8003054333030300D002338503133303054E3
:103EC800333030300D0023365032333030543330F5
:103ED80030300D00233150313430305433303030ED
:103EE8000D002334503134303054333030300D002D
:103EF8002331503234303054333030300D002332D7
:103F0800503234303054333030300D00233050319B
:103F180035303054333030300D00233232503530A4
:103F28003054333030300D00233236503530305471
:103F3800333030300D002335503136303054333083
:103F480030300D0023395031363030543330303072
:103F58000D002331375036303054333030300D00B7
:103F68002332503137303054333030300D0023365F
:103F7800503137303054333030300D002332315027
:103F880038303054333030300D002331503139302F
:103F98003054333030300D00233130503930305404
:103FA800333030300D00233235503930305433300F
:103FB80030300D0023313850393030543330303000
:103FC8000D0023355037303054333030300D002356
:103FD800395037303054333030300D0023365038B4
:103FE800303054333030300D0023325039303054B3
:073FF800333030300D0000F2
:020000040020DA
:08000000FFFFFFFFFFFFFFFF00
:020000040030CA
:0E000000FF891F1EFF8281FF0FC00FE00F401F
:00000001FF
