:0400000063EF00F0BA
:06000800368204ED06F053
:100018003680D8CF13F0E8CF14F0E0CF15F0FACF40
:1000280016F0FBCF17F0E9CF18F0EACF19F0E1CFBF
:100038001AF0E2CF1BF0D9CF1CF0DACF1DF0F3CFC6
:100048001EF0F4CF1FF0F6CF20F0F7CF21F0F8CF55
:1000580022F0F5CF23F036C024F037C025F038C0A1
:1000680026F039C027F027C039F026C038F025C05F
:1000780037F024C036F023C0F5FF22C0F8FF21C0B6
:10008800F7FF20C0F6FF1FC0F4FF1EC0F3FF1DC01E
:10009800DAFF1CC0D9FF1BC0E2FF1AC0E1FF19C07C
:1000A800EAFF18C0E9FF17C0FBFF16C0FAFF15C02A
:1000B800E0FF14C0E8FF13C0D8FF369010000EEF21
:0200C80007F03F
:100300000000000000C80000000000C80000003825
:10031000FF01000A006400E8031027FFFFFFFFFF52
:10032000FF010001000100010001000100FFFFFFCB
:10033000FFFFFF010001000100010001000100FFBB
:10034000FFFFFFFFFFFFFFFFFFFFFF543430300DC3
:09035000002564002300500000A8
:10035A00C3EC07F0000E0001856F000E846F000EDB
:10036A00856F000E846F855105E1060E845DD8B055
:10037A00E9D101D0E7D1000E2E6E020E2F6E540E77
:10038A00306E030E316E8EEC06F0000E2E6E020EEB
:10039A002F6E84C028F085C029F0000E2B6E150E32
:1003AA002A6EB0EC07F0020E2826000E2922000E53
:1003BA002824306E010E2920316E8EEC06F0000ED4
:1003CA002E6E020E2F6E560E306E030E316E8EECAE
:1003DA0006F084C028F085C029F0000E2B6E150E99
:1003EA002A6EB0EC07F0110E2826000E2922000E04
:1003FA002824D96E010E2920DA6EDECF80F0DDCFF7
:10040A0081F084C028F085C029F0000E2B6E150EED
:10041A002A6EB0EC07F0000E2824D96E010E2920AE
:10042A00DA6EDECF6DF0DDCF6EF0D89000016D3759
:10043A006E37080E6D27000E6E23010E6D25F66EBF
:10044A00030E6E21F76E0900F5CF82F00A00F5CF90
:10045A0083F080C028F081C029F082C02AF083C0CE
:10046A002BF0B0EC07F028C079F029C07AF079C0F7
:10047A0028F07AC029F084C06DF085C06EF0D8905B
:10048A0000016D376E3786C06FF087C070F06D510E
:10049A006F276E5170236FC0F6FF70C0F7FF090017
:1004AA00F5CF2AF00A00F5CF2BF0B0EC07F028C000
:1004BA0071F029C072F084C028F085C029F0000EBE
:1004CA002B6E150E2A6EB0EC07F00B0E2826000EC6
:1004DA002922000E2824D96E010E2920DA6EDECFD9
:1004EA006DF0DDCF6EF0000171516D25736F7251A1
:1004FA006E21746F7B0E606F000E616F510E626F1A
:10050A00030E636F73C064F074C065F011EC05F0FC
:10051A00000E2E6E020E2F6E7B0E306E000E316EA6
:10052A008EEC06F0000E2E6E020E2F6E540E306EFA
:10053A00030E316E8EEC06F0000E2E6E020E2F6E3A
:10054A0084C028F085C029F0000E2B6E150E2A6E85
:10055A00B0EC07F0050E2826000E2922000E2824EA
:10056A00306E010E2920316E8EEC06F0000E2E6ED2
:10057A00020E2F6E560E306E030E316E8EEC06F0A2
:10058A0084C028F085C029F0000E2B6E150E2A6E45
:10059A00B0EC07F0130E2826000E2922000E28249C
:1005AA00D96E010E2920DA6EDECF80F0DDCF81F020
:1005BA0084C028F085C029F0000E2B6E150E2A6E15
:1005CA00B0EC07F0000E2824D96E010E2920DA6E4D
:1005DA00DECF6DF0DDCF6EF0D89000016D376E374B
:1005EA00010E6D25F66E030E6E21F76E0900F5CF2A
:1005FA0082F00A00F5CF83F080C028F081C029F08C
:10060A0082C02AF083C02BF0B0EC07F028C075F046
:10061A0029C076F084C028F085C029F0000E2B6E20
:10062A00150E2A6EB0EC07F00D0E2826000E2922B0
:10063A00000E2824D96E010E2920DA6EDECF6DF065
:10064A00DDCF6EF0000175516D25776F76516E2101
:10065A00786F7B0E606F000E616F510E626F030E32
:10066A00636F77C064F078C065F011EC05F0000E96
:10067A002E6E020E2F6E7B0E306E000E316E8EECD9
:10068A0006F0000E2E6E020E2F6E540E306E030E02
:10069A00316E8EEC06F0000E2E6E020E2F6E84C0A6
:1006AA0028F085C029F0000E2B6E150E2A6EB0ECCC
:1006BA0007F0080E2826000E2922000E2824306E84
:1006CA00010E2920316E8EEC06F0000E2E6E020EFF
:1006DA002F6E560E306E030E316E8EEC06F07B0EC8
:1006EA000001606F000E616F510E626F030E636F3F
:1006FA0084C028F085C029F0000E2B6E150E2A6ED4
:10070A00B0EC07F00F0E2826000E2922000E28242E
:10071A00D96E010E2920DA6EDECF64F0DDCF65F0E6
:10072A0011EC05F0000E2E6E020E2F6E7B0E306E4F
:10073A00000E316E8EEC06F00001844B852B85513C
:10074A0001E113D6000E2E6E020E2F6E4B0E306E86
:10075A00030E316E8EEC06F01200000E0001736F6C
:10076A00000E726F000E736F000E726F735105E107
:10077A00060E725DD8B0120001D01200C3EC07F069
:10078A00000E2E6E020E2F6E540E306E030E316E58
:10079A008EEC06F0000E2E6E020E2F6E72C028F03E
:1007AA0073C029F0000E2B6E150E2A6EB0EC07F0FE
:1007BA00020E2826000E2922000E2824306E010E71
:1007CA002920316E8EEC06F0000E2E6E020E2F6E70
:1007DA00560E306E030E316E8EEC06F06D0E000171
:1007EA00606F000E616F510E626F030E636F72C00D
:1007FA0028F073C029F0000E2B6E150E2A6EB0EC8D
:10080A0007F00B0E2826000E2922000E2824D96E86
:10081A00010E2920DA6EDECF64F0DDCF65F011EC2F
:10082A0005F0000E2E6E020E2F6E6D0E306E000E4B
:10083A00316E8EEC06F0000E2E6E020E2F6E4F0EEB
:10084A00306E030E316E8EEC06F0000E2E6E020E26
:10085A002F6EBAEC06F0C3EC07F0000E2E6E020EF5
:10086A002F6E540E306E030E316E8EEC06F0000EB3
:10087A002E6E020E2F6E72C028F073C029F0000E81
:10088A002B6E150E2A6EB0EC07F0050E2826000E08
:10089A002922000E2824306E010E2920316E8EEC9A
:1008AA0006F0000E2E6E020E2F6E560E306E030EDE
:1008BA00316E8EEC06F06D0E0001606F000E616FF6
:1008CA00510E626F030E636F72C028F073C029F075
:1008DA00000E2B6E150E2A6EB0EC07F00D0E2826B0
:1008EA00000E2922000E2824D96E010E2920DA6E64
:1008FA00DECF64F0DDCF65F011EC05F0000E2E6E50
:10090A00020E2F6E6D0E306E000E316E8EEC06F0FA
:10091A00000E2E6E020E2F6E4F0E306E030E316ECB
:10092A008EEC06F0000E2E6E020E2F6EBAEC06F05A
:10093A00C3EC07F0000E2E6E020E2F6E540E306EB0
:10094A00030E316E8EEC06F0000E2E6E020E2F6E26
:10095A0072C028F073C029F0000E2B6E150E2A6E95
:10096A00B0EC07F0080E2826000E2922000E2824D3
:10097A00306E010E2920316E8EEC06F0000E2E6EBE
:10098A00020E2F6E560E306E030E316E8EEC06F08E
:10099A006D0E0001606F000E616F510E626F030EE3
:1009AA00636F72C028F073C029F0000E2B6E150E0B
:1009BA002A6EB0EC07F00F0E2826000E2922000E30
:1009CA002824D96E010E2920DA6EDECF64F0DDCF3D
:1009DA0065F011EC05F0000E2E6E020E2F6E6D0EF4
:1009EA00306E000E316E8EEC06F0000E2E6E020E88
:1009FA002F6E4F0E306E030E316E8EEC06F0000E27
:100A0A002E6E020E2F6EBAEC06F00001724B732B9B
:100A1A00735101E1ADD61200640E0001666F000E3B
:100A2A00676F8DD0250E6C19D8B409D060C0D9FF74
:100A3A0061C0DAFF6CC0DFFF604B612B80D0000E13
:100A4A00686F62C0F6FF63C0F7FF624B632B080052
:100A5A00F5CF6CF06C51000AD8B47DD0640AD8B4D2
:100A6A0003D00D0AD8A46BD066C0D9FF67C0DAFFDD
:100A7A00DECF6AF0DDCF6BF0020E6627000E672329
:100A8A006BAF06D0030E68136A6D6B1FD8B06B2B61
:100A9A00010E6C6F050E6C19D8B412D06C51020D90
:100AAA00110EF324F66E030EF420F76E0900F550CA
:100ABA006A5D0900F5506B59D8A002D06C2BEAD7B1
:100ACA0068C034F0030E3416D8B408D060C0D9FF19
:100ADA0061C0DAFF2D0EDF6E604B612B6CC069F0CE
:100AEA002AD06951020D110EF324F66E030EF4207A
:100AFA00F76E0900F5CF2AF00A00F5CF2BF06AC08D
:100B0A0028F06BC029F0E5EC06F028C02FF029C0C8
:100B1A0030F0000E326E0A0E316E2FEC07F02F50B5
:100B2A00300F00016C6F60C0D9FF61C0DAFF6CC082
:100B3A00DFFF604B612B69076929D8A4D2D762C04D
:100B4A00F6FF63C0F7FF624B632B0800F5CF6CF02A
:100B5A006C51D8A467D760C0D9FF61C0DAFF000E14
:100B6A00DF6E1200000E316E000E306E315046E11B
:100B7A00060E305CD8B0120030C028F031C029F01F
:100B8A00000E2B6E150E2A6EB0EC07F0000E28240C
:100B9A00D96E010E2920DA6E010EDB5018E1030E20
:100BAA00DE5CD8B014D030C028F031C029F0000E75
:100BBA002B6E150E2A6EB0EC07F0000E2824D96EA3
:100BCA00010E2920DA6EDE2A000EDD2214D030C092
:100BDA0028F031C029F0000E2B6E150E2A6EB0ECEB
:100BEA0007F0000E2824D96E010E2920DA6E000EB5
:100BFA00DE6E000EDD6E304A312AB8D712000600CA
:100C0A00FACF01F0FBCF02F0E9CF03F0EACF04F00C
:100C1A00E1CF05F0E2CF06F0D9CF07F0DACF08F03E
:100C2A00F3CF09F0F4CF0AF0F6CF0BF0F7CF0CF0C0
:100C3A00F8CF0DF0F5CF0EF036C00FF037C010F038
:100C4A0038C011F039C012F012C039F011C038F0B2
:100C5A0010C037F00FC036F00EC0F5FF0DC0F8FF18
:100C6A000CC0F7FF0BC0F6FF0AC0F4FF09C0F3FF80
:100C7A0008C0DAFF07C0D9FF06C0E2FF05C0E1FFDE
:100C8A0004C0EAFF03C0E9FF02C0FBFF01C0FAFF8C
:100C9A00369211000000313200310000320000A407
:100CAA000698080807010001000200340000350018
:100CBA000036000046054006A406010001000000B7
:100CCA00380000390000313000E803400608070107
:100CDA000001000200313600313700313800400689
:100CEA00B004DC05FFFFFFFF0000323000323100A4
:100CFA0032320034081405E803FFFFFFFF02003216
:100D0A0034003235003236006C077805E803FFFFFD
:100D1A00FFFF2EC032F02FC033F002D0324A332AFE
:100D2A0032C0D9FF33C0DAFFDF50D8B405D0F6D7C6
:100D3A00324A332A304A312A30C0F6FF31C0F7FF2F
:100D4A00F86A32C0D9FF33C0DAFF020EF76403D063
:100D5A000800F55005D0F6CFE1FFF7CFE2FFE750E4
:100D6A00DF6EDF50D8B41200E3D72EC028F02FC0B0
:100D7A0029F050EC07F028C031F029C032F0000EFB
:100D8A00346E000E336E11D033502E24D96E345087
:100D9A002F20DA6EDF50356E3550DFEC07F00D0E7E
:100DAA003518D8B41200334A342A3150335C3450DF
:100DBA00800A306E3250800A3058D8B01200E4D718
:100DCA00000E2D6E000E2C6E2A502B10D8B41CD09B
:100DDA00010E2E6E04D0D8902A362B362E2A2BAE30
:100DEA00FAD7D8902C362D362A50285C2B50295801
:100DFA00D8A005D02A50285E2B50295A2C80D8908A
:100E0A002B322A322E2EEDD72CC028F02DC029F0F5
:100E1A0012009E0EF66E0C0EF76E000EF86E01EEC4
:100E2A0000F010EE7EF00900F5CFEEFFE550E1503C
:100E3A00FAE102EE00F011EE00F0EE6AE550E15040
:100E4A00FCE1E250FAE136903692000EF86E0001AB
:100E5A0084EF07F031503210D8B418D0010E336E37
:100E6A0004D0D89031363236332A32AEFAD73150DE
:100E7A002F5C32503058D8A004D031502F5E3250F7
:100E8A00305AD89032323132332EF1D72FC02FF068
:100E9A0030C030F0120028C02CF029C02DF002D04A
:100EAA002C4A2D2A2CC0D9FF2DC0DAFFDF50D8A436
:100EBA00F7D728C02AF029C02BF02A1E2B1E2A4A4F
:100ECA002B2A2C502A24286E2D502B20296E1200F2
:100EDA00B886AC84330EAF6E000EB06EAC98AB8E93
:100EEA00AC8A949C948E030E296E8A0E286E560E36
:100EFA00E82EFED7282EFCD7292EFAD71200270E65
:100F0A000001866F030E876FD2EC07F06DEC07F0D5
:100F1A00B2EC03F0ADEC01F0000E2E6E020E2F6E55
:100F2A00BAEC06F0B7EC05F0F5D728C02EF029C0C8
:100F3A002FF008D02EC0D9FF2FC0DAFF2AC0DFFF5A
:100F4A002E4A2F2A2C06D8A02D062C28F3E12D286C
:100F5A00D8B41200EFD728502A02F3CF2CF0F4CFDE
:100F6A002DF028502B02F3502D2629502A02F35037
:100F7A002D262CC028F02DC029F01200000E286E54
:100F8A00020E296E000E2B6E000E2A6E010E2D6EB9
:100F9A00000E2C6E9AEC07F012009B8E9B9C9B9085
:100FAA009B929B949B969B98D39ED3508F0B5009F0
:100FBA00D36E1200286EACA2FED728C0ADFF120075
:020000040020DA
:08000000FFFFFFFFFFFFFFFF00
:020000040030CA
:0E000000FF891F1EFF8281FF0FC00FE00F401F
:00000001FF
