:0400000063EF00F0BA
:06000800388221ED0CF02E
:100018003880D8CF13F0E8CF14F0E0CF15F0FACF3E
:1000280016F0FBCF17F0E9CF18F0EACF19F0E1CFBF
:100038001AF0E2CF1BF0D9CF1CF0DACF1DF0F3CFC6
:100048001EF0F4CF1FF0F6CF20F0F7CF21F0F8CF55
:1000580022F0F5CF23F038C024F039C025F03AC09B
:1000680026F03BC027F027C03BF026C03AF025C059
:1000780039F024C038F023C0F5FF22C0F8FF21C0B2
:10008800F7FF20C0F6FF1FC0F4FF1EC0F3FF1DC01E
:10009800DAFF1CC0D9FF1BC0E2FF1AC0E1FF19C07C
:1000A800EAFF18C0E9FF17C0FBFF16C0FAFF15C02A
:1000B800E0FF14C0E8FF13C0D8FF389010006CEFC1
:0200C8000DF039
:10030000000080BF0080BF0080BF00803F00803FB2
:1003100000803F00803F00803F00803F00803F0022
:10032000803F00803F00000000C80000000000C8BF
:1003300000000038FF01000A006400E8031027F401
:100340004A489595C7C1DC45DC6DC3B333403401E1
:10035000489DB04500DA4200803F543430300D00F3
:100360002564002300500000ECEC0EF0000E0001AC
:10037000B16F000EB06F000EB16F000EB06FB151D3
:1003800005E1060EB05DD8B09ED201D09CD2000E21
:100390002E6E020E2F6E630E306E030E316E9FECCA
:1003A0000DF0000E2E6E020E2F6EB0C028F0B1C000
:1003B00029F0000E2B6E150E2A6EC7EC0EF0020E01
:1003C0002826000E2922000E2824306E010E292036
:1003D000316E9FEC0DF0000E2E6E020E2F6E650E2C
:1003E000306E030E316E9FEC0DF0000E2B6E150E6D
:1003F0002A6EB0C028F0B1C029F0C7EC0EF0000E94
:100400002824D96E010E2920DA6EDECF90F0DDCFE0
:1004100091F0D890000190379137080E9027000E88
:100420009123250E9025F66E030E9121F76E09009B
:10043000F5CFACF00A00F5CFADF0000E2B6E150E27
:100440002A6EB0C028F0B1C029F0C7EC0EF0110E32
:100450002826000E2922000E2824D96E010E2920FC
:10046000DA6EDECFAEF0DDCFAFF0000E2B6E030EF6
:100470002A6EB0C028F0B1C029F0C7EC0EF0010E12
:100480002824F66E030E2920F76E0900F5CF63F0DD
:100490000900F5CF64F00A00F5CF65F0ACC02AF092
:1004A000ADC02BF0AEC028F0AFC029F0C7EC0EF005
:1004B00028C030F029C031F07EEC0EF030C060F082
:1004C00031C061F032C062F0F9EC08F060C092F027
:1004D00061C093F062C094F08DC063F08EC064F090
:1004E0008FC065F092C060F093C061F094C062F07C
:1004F000F9EC08F060C095F061C096F062C097F02A
:10050000B0C028F0B1C029F0000E2B6E150E2A6E77
:10051000C7EC0EF0110E2826000E2922000E28240A
:10052000D96E010E2920DA6EDECFA3F0DDCFA4F064
:10053000B0C028F0B1C029F0000E2B6E150E2A6E47
:10054000C7EC0EF0000E2824D96E010E2920DA6EB9
:10055000DECF90F0DDCF91F0D89000019037913749
:10056000080E9027000E9123250E9025F66E030E9F
:100570009121F76E0900F5CFA5F00A00F5CFA6F09E
:100580008AC063F08BC064F08CC065F0A3C028F013
:10059000A4C029F0A5C02AF0A6C02BF0C7EC0EF02D
:1005A00028C030F029C031F07EEC0EF030C060F091
:1005B00031C061F032C062F0F9EC08F060C098F030
:1005C00061C099F062C09AF0000E0001636F000EE6
:1005D000646F3F0E656F95C060F096C061F097C084
:1005E00062F0F9EC08F060C072F061C073F062C0B4
:1005F00074F0000E0001636F000E646F3F0E656FB4
:1006000098C060F099C061F09AC062F0F9EC08F00F
:1006100060C06FF061C070F062C071F000EC07F074
:100620006FC07BF070C07CF071C07DF07DEC08F095
:100630007BC09BF07CC09CF0B0C028F0B1C029F01A
:10064000000E2B6E150E2A6EC7EC0EF00B0E282630
:10065000000E2922000E2824D96E010E2920DA6E00
:10066000DECF90F0DDCF91F000019B5190259D6F82
:100670009C5191219E6FA70E606F000E616F600EFE
:10068000626F030E636F9DC064F09EC065F0D7EC8F
:1006900007F0000E2E6E020E2F6EA70E306E000EAB
:1006A000316E9FEC0DF0000E2E6E020E2F6E630E5B
:1006B000306E030E316E9FEC0DF0000E2E6E020EAA
:1006C0002F6EB0C028F0B1C029F0000E2B6E150EB1
:1006D0002A6EC7EC0EF0050E2826000E2922000E09
:1006E0002824306E010E2920316E9FEC0DF0000E93
:1006F0002E6E020E2F6E650E306E030E316E9FEC65
:100700000DF0B0C028F0B1C029F0000E2B6E150E10
:100710002A6EC7EC0EF0130E2826000E2922000EBA
:100720002824D96E010E2920DA6EDECFACF0DDCFA1
:10073000ADF0B0C028F0B1C029F0000E2B6E150E40
:100740002A6EC7EC0EF0000E2824D96E010E292067
:10075000DA6EDECF90F0DDCF91F0D89000019037C7
:100760009137250E9025F66E030E9121F76E090044
:10077000F5CFAEF00A00F5CFAFF0ACC028F0ADC0B9
:1007800029F0AEC02AF0AFC02BF0C7EC0EF028C0A5
:100790009FF029C0A0F0B0C028F0B1C029F0000E31
:1007A0002B6E150E2A6EC7EC0EF00D0E2826000ECD
:1007B0002922000E2824D96E010E2920DA6EDECF00
:1007C00090F0DDCF91F000019F519025A16FA051D5
:1007D0009121A26FA70E606F000E616F600E626FB5
:1007E000030E636FA1C064F0A2C065F0D7EC07F000
:1007F000000E2E6E020E2F6EA70E306E000E316EA2
:100800009FEC0DF0000E2E6E020E2F6E630E306EFA
:10081000030E316E9FEC0DF0000E2E6E020E2F6E49
:10082000B0C028F0B1C029F0000E2B6E150E2A6E54
:10083000C7EC0EF0080E2826000E2922000E2824F0
:10084000306E010E2920316E9FEC0DF0000E2E6EE1
:10085000020E2F6E650E306E030E316E9FEC0DF0A2
:10086000A70E0001606F000E616F600E626F030ED5
:10087000636FB0C028F0B1C029F0000E2B6E150ECA
:100880002A6EC7EC0EF00F0E2826000E2922000E4D
:100890002824D96E010E2920DA6EDECF64F0DDCF78
:1008A00065F0D7EC07F0000E2E6E020E2F6EA70E2D
:1008B000306E000E316E9FEC0DF00001B04BB12B8D
:1008C000B15101E15ED5000E2E6E020E2F6E5A0E52
:1008D000306E030E316E9FEC0DF01200000E000121
:1008E000736F000E726F000E736F000E726F735194
:1008F00005E1060E725DD8B0120001D01200ECECDA
:100900000EF0000E2E6E020E2F6E630E306E030E72
:10091000316E9FEC0DF0000E2E6E020E2F6E72C027
:1009200028F073C029F0000E2B6E150E2A6EC7EC4E
:100930000EF0020E2826000E2922000E2824306E0A
:10094000010E2920316E9FEC0DF0000E2E6E020E6E
:100950002F6E650E306E030E316E9FEC0DF06D0E36
:100960000001606F000E616F600E626F030E636FB7
:1009700072C028F073C029F0000E2B6E150E2A6E7F
:10098000C7EC0EF00B0E2826000E2922000E28249C
:10099000D96E010E2920DA6EDECF64F0DDCF65F06E
:1009A000D7EC07F0000E2E6E020E2F6E6D0E306E1D
:1009B000000E316E9FEC0DF0000E2E6E020E2F6EAB
:1009C0005E0E306E030E316E9FEC0DF0000E2E6E3B
:1009D000020E2F6ECBEC0DF0ECEC0EF0000E2E6E36
:1009E000020E2F6E630E306E030E316E9FEC0DF013
:1009F000000E2E6E020E2F6E72C028F073C029F00A
:100A0000000E2B6E150E2A6EC7EC0EF0050E282672
:100A1000000E2922000E2824306E010E2920316E8E
:100A20009FEC0DF0000E2E6E020E2F6E650E306ED6
:100A3000030E316E9FEC0DF06D0E0001606F000E25
:100A4000616F600E626F030E636F72C028F073C037
:100A500029F0000E2B6E150E2A6EC7EC0EF00D0E4F
:100A60002826000E2922000E2824D96E010E2920E6
:100A7000DA6EDECF64F0DDCF65F0D7EC07F0000E64
:100A80002E6E020E2F6E6D0E306E000E316E9FECCC
:100A90000DF0000E2E6E020E2F6E5E0E306E030EE7
:100AA000316E9FEC0DF0000E2E6E020E2F6ECBEC11
:100AB0000DF0ECEC0EF0000E2E6E020E2F6E630E9B
:100AC000306E030E316E9FEC0DF0000E2E6E020E96
:100AD0002F6E72C028F073C029F0000E2B6E150E19
:100AE0002A6EC7EC0EF0080E2826000E2922000EF2
:100AF0002824306E010E2920316E9FEC0DF0000E7F
:100B00002E6E020E2F6E650E306E030E316E9FEC50
:100B10000DF06D0E0001606F000E616F600E626F70
:100B2000030E636F72C028F073C029F0000E2B6EA5
:100B3000150E2A6EC7EC0EF00F0E2826000E292285
:100B4000000E2824D96E010E2920DA6EDECF64F063
:100B5000DDCF65F0D7EC07F0000E2E6E020E2F6E83
:100B60006D0E306E000E316E9FEC0DF0000E2E6E8D
:100B7000020E2F6E5E0E306E030E316E9FEC0DF086
:100B8000000E2E6E020E2F6ECBEC0DF00001724B9C
:100B9000732B735101E1ADD61200000E0001AC6F52
:100BA000A2AF11D0A0C028F0A1C029F0A2C02AF0A5
:100BB000DAEC0EF028C0A0F029C0A1F02AC0A2F003
:100BC000010E0001AC6FA0C060F0A1C061F0A2C036
:100BD00062F0FA0E636F220E646F3E0E656FF9ECE1
:100BE00008F060C0A0F061C0A1F062C0A2F0A0C097
:100BF0009AF0A1C09BF0A2C09CF0A0C092F0A1C04E
:100C000093F0A2C094F0E8EC09F092C09DF093C07C
:100C10009EF094C09FF01FEC0EF09AC0A0F09BC015
:100C2000A1F09CC0A2F0A0C060F0A1C061F0A2C081
:100C300062F0000E0001636F800E646F400E656FFE
:100C4000F9EC08F060C0A0F061C0A1F062C0A2F0B1
:100C5000000E286E000E296E400E2A6EA0C02BF0EA
:100C6000A1C02CF0A2C02DF06CEC0CF0D8B01DD0BF
:100C7000A0C09AF0A1C09BF0A2C09CF0000E0001A1
:100C80009D6F000E9E6F400E9F6F1FEC0EF09AC07E
:100C9000A0F09BC0A1F09CC0A2F00001AC51D8A470
:100CA00002D0010E01D0000EAC6F000E286E800E37
:100CB000296E3F0E2A6EA0C02BF0A1C02CF0A2C05E
:100CC0002DF06CEC0CF0D8B01DD0A0C028F0A1C065
:100CD00029F0A2C02AF0DAEC0EF028C06FF029C08B
:100CE00070F02AC071F0000E0001726F000E736F79
:100CF000400E746F00EC07F06FC0A0F070C0A1F060
:100D000071C0A2F0A0C060F0A1C061F0A2C062F00A
:100D1000A0C063F0A1C064F0A2C065F0F9EC08F0D7
:100D200060C0A9F061C0AAF062C0ABF0A9C07BF0BE
:100D3000AAC07CF0ABC07DF04E0E00017E6F030EAA
:100D40007F6F000E816F030E806F59EC0AF07BC03D
:100D5000A3F07CC0A4F07DC0A5F0A3C088F0A4C01F
:100D600089F0A5C08AF0000E0001816F040E806F2B
:100D70003F0E7E6F030E7F6FA9C07BF0AAC07CF090
:100D8000ABC07DF059EC0AF07BC085F07CC086F0EA
:100D90007DC087F074EC09F085C0A6F086C0A7F08E
:100DA00087C0A8F0A0C060F0A1C061F0A2C062F04E
:100DB000A6C063F0A7C064F0A8C065F0F9EC08F025
:100DC00060C0A0F061C0A1F062C0A2F00001AC510F
:100DD000D8B40FD0A0C028F0A1C029F0A2C02AF03A
:100DE000DAEC0EF028C0A0F029C0A1F02AC0A2F0D1
:100DF0001200A0C0A0F0A1C0A1F0A2C0A2F01200F9
:100E000071C075F00001766B776B7035753701E353
:100E1000768175517A6F74C075F0766B776B733528
:100E2000753701E376817551796F7A51D8B40BD05B
:100E300079517A5DD8B00ED07A5100087925756F56
:100E4000180E756507D072C06FF073C070F074C073
:100E500071F012007951D8B40BD07A51795DD8B0C5
:100E60000ED0795100087A25756F180E756507D078
:100E70006FC06FF070C070F071C071F01200060E9C
:100E8000786F71BF788F74BF788D708FFF0E6F177A
:100E9000FF0E7017000E7117738FFF0E7217FF0E83
:100EA0007317000E741779517A5DD8B01BD0D890A3
:100EB00072377337743779077A517919D8B40DD0EE
:100EC000780778C075F0070E7517D8B406D0EFD73D
:100ED000D890713370336F337A2B79517A19D8B433
:100EE0001FD0F6D77A51795DD8B01AD0D8906F3725
:100EF000703771377A077A517919D8B40DD07807DD
:100F000078C075F0070E7517D8B406D0EFD7D89013
:100F1000743373337233792B79517A19D8A4F7D794
:100F200078AF0CD0FF0E6F1BFF0E701BFF0E711BF6
:100F3000010E6F27000E7023000E712378AD0CD0C8
:100F4000FF0E721BFF0E731BFF0E741B010E722728
:100F5000000E7323000E7423000E786F6F517227FA
:100F6000705173237151742374AF0ED0FF0E721B36
:100F7000FF0E731BFF0E741B010E7227000E7323EE
:100F8000000E7423010E786F72C028F073C029F030
:100F900074C02AF07AC02BF078C02CF07DEC0BF0F6
:100FA00028C06FF029C070F02AC071F01200640EE2
:100FB0000001666F000E676F8DD0250E6C19D8B4D6
:100FC00009D060C0D9FF61C0DAFF6CC0DFFF604BA1
:100FD000612B80D0000E686F62C0F6FF63C0F7FF20
:100FE000624B632B0800F5CF6CF06C51000AD8B44B
:100FF0007DD0640AD8B403D00D0AD8A46BD066C0E3
:10100000D9FF67C0DAFFDECF6AF0DDCF6BF0020EEA
:101010006627000E67236BAF06D0030E68136A6D58
:101020006B1FD8B06B2B010E6C6F050E6C19D8B40A
:1010300012D06C51020D350EF324F66E030EF4201F
:10104000F76E0900F5506A5D0900F5506B59D8A09C
:1010500002D06C2BEAD768C034F0030E3416D8B433
:1010600008D060C0D9FF61C0DAFF2D0EDF6E604B83
:10107000612B6CC069F02AD06951020D350EF32442
:10108000F66E030EF420F76E0900F5CF2AF00A0081
:10109000F5CF2BF06AC028F06BC029F0F6EC0DF00C
:1010A00028C02FF029C030F0000E326E0A0E316ECB
:1010B00040EC0EF02F50300F00016C6F60C0D9FF74
:1010C00061C0DAFF6CC0DFFF604B612B69076929E3
:1010D000D8A4D2D762C0F6FF63C0F7FF624B632B80
:1010E0000800F5CF6CF06C51D8A467D760C0D9FF69
:1010F00061C0DAFF000EDF6E12007DC07FF00001DC
:10110000806B816B7C357F3701E380817F51896FF4
:101110008951D8A409D0000E7B6F000E7C6F000EA1
:101120007D6F000E7E6F1200170E7F6F7BC080F008
:101130007CC081F07DC082F07F29836F04D0D8907D
:10114000823381338033832FFAD700018051846F3B
:101150007C8FFF0E7B17FF0E7C17000E7D177B51D7
:10116000856F7C51866F7D51876F886B8E0E895F8E
:1011700089AF16D08951800A8F0FD8B009D0000EE0
:101180007B6F000E7C6F000E7D6F000E7E6F120075
:10119000D8908833873386338533893FF9D715D084
:1011A000170E89650FD0000E7B6F000E7C6F000E4E
:1011B0007D6F000E7E6F1200D89085378637873797
:1011C000883789078951D8A4F7D78451D8B408D073
:1011D000881F871F861F856D000E8623872388231F
:1011E00085C07BF086C07CF087C07DF088C07EF033
:1011F000120062C066F00001676B686B613566378C
:1012000001E367816651696F6951D8A407D0000E68
:10121000606F000E616F000E626F120065C066F0B5
:10122000676B686B6435663701E3678166516E6F83
:101230006E51D8A407D0000E606F000E616F000ED3
:10124000626F12006E517B0F692762C06EF06551AC
:101250006E1B800E6E17618F648FFF0E6317FF0E7B
:101260006417000E6517000E6A6F000E6B6F000E9C
:101270006C6F070E6D6F60A106D063516A276451D1
:101280006B2365516C23D890623361336033D890FF
:101290006337643765376D2FEED7090E6D6F60A128
:1012A00006D063516A2764516B2365516C23D89033
:1012B000623361336033D8906C336B336A336D2F94
:1012C000EED76AC028F06BC029F06CC02AF069C064
:1012D0002BF06EC02CF07DEC0BF028C060F029C024
:1012E00061F02AC062F0120087C08BF000018C6BA5
:1012F0008D6B86358B3701E38C818B51926F9251C8
:10130000D8A407D0000E856F000E866F000E876F81
:1013100012008AC08BF08C6B8D6B89358B3701E3A3
:101320008C818B51936F9351D8A407D0000E856F99
:10133000000E866F000E876F1200000E8F6F000E7A
:10134000906F000E916F9351890F925F87C093F059
:101350008A51931B800E9317868FFF0E8517FF0E01
:101360008617000E8717898FFF0E8817FF0E8917C3
:10137000000E8A17180E8E6FD8908F3790379137DE
:101380008851855D895186598A518759D8A007D0DF
:101390008851855F8951865B8A51875B8F81D890A0
:1013A0008537863787378E2FE7D78FC028F090C0D4
:1013B00029F091C02AF092C02BF093C02CF07DEC64
:1013C0000BF028C085F029C086F02AC087F01200F3
:1013D00092C028F093C029F094C02AF0980E2B6E8A
:1013E000000E2C6E30EC0DF0000199AF10D094AFD0
:1013F00007D0000E926F800E936FBF0E946F120095
:10140000000E926F000E936F000E946F12009951B0
:1014100004E1150E985DD8A007D092C092F093C059
:1014200093F094C094F0120092C07BF093C07CF0D3
:1014300094C07DF07DEC08F07BC08AF07CC08BF01E
:101440007DC08CF07EC08DF0F3EC0CF08AC095F07E
:101450008BC096F08CC097F092C028F093C029F012
:1014600094C02AF095C02BF096C02CF097C02DF0B8
:101470006CEC0CF0D8B016D095C06FF096C070F040
:1014800097C071F0000E0001726F800E736FBF0E77
:10149000746F00EC07F06FC092F070C093F071C0F1
:1014A00094F0120095C092F096C093F097C094F01B
:1014B000120080C028F081C029F0000E2B6E030EB0
:1014C0002A6EC7EC0EF07EC034F07FC035F0285095
:1014D00034262950352234C0F6FF35C0F7FF090005
:1014E000F5CF82F00900F5CF83F00A00F5CF84F044
:1014F0003FD082C063F083C064F084C065F07BC0DD
:1015000060F07CC061F07DC062F0F9EC08F060C072
:101510006FF061C070F062C071F0000E2B6E030EB0
:101520002A6E00018007D8A0810780C028F081C002
:1015300029F0C7EC0EF07EC034F07FC035F02850A3
:1015400034262950352234C0F6FF35C0F7FF090094
:10155000F5CF72F00900F5CF73F00A00F5CF74F003
:1015600000EC07F06FC082F070C083F071C084F0AF
:10157000000180518111D8A4BCD782C07BF083C008
:101580007CF084C07DF01200BFC0ADF0C0C0AEF0F2
:10159000C1C0AFF025EC0BF0ADC0B9F0AEC0BAF0F1
:1015A000AFC0BBF0B9C060F0BAC061F0BBC062F0C0
:1015B000C2C063F0C3C064F0C4C065F0F9EC08F0C9
:1015C00060C0B3F061C0B4F062C0B5F0BFC0A0F0BD
:1015D000C0C0A1F0C1C0A2F0CDEC05F0A0C0BCF02D
:1015E000A1C0BDF0A2C0BEF0BCC060F0BDC061F043
:1015F000BEC062F0C2C063F0C3C064F0C4C065F096
:10160000F9EC08F060C0B6F061C0B7F062C0B8F0A5
:10161000FBEC0EF09AEC0EF06EEC04F0B3C08AF026
:10162000B4C08BF0B5C08CF0B6C08DF0B7C08EF0F2
:10163000B8C08FF0B4EC01F0000E2E6E020E2F6ECB
:10164000CBEC0DF0D4EC0BF0E9D7100E286E490E60
:10165000296E400E2A6EADC02BF0AEC02CF0AFC08C
:101660002DF06CEC0CF0D8B024D0ADC06FF0AEC053
:1016700070F0AFC071F0CC0E0001726F960E736FF8
:10168000C00E746F00EC07F06FC0B0F070C0B1F026
:1016900071C0B2F0B0C0A0F0B1C0A1F0B2C0A2F071
:1016A000CDEC05F0A0C0ADF0A1C0AEF0A2C0AFF08F
:1016B0001200ADC06FF0AEC070F0AFC071F0100E90
:1016C0000001726FC90E736F3F0E746F00EC07F06C
:1016D0006FC0B0F070C0B1F071C0B2F0B0C0A0F097
:1016E000B1C0A1F0B2C0A2F0CDEC05F0A0C0ADF049
:1016F000A1C0AEF0A2C0AFF012002B50D8B405D0FC
:10170000285029102A10D8A40CD0000E286E000EE4
:10171000296E000E2A6E12002B2AD8902A32293206
:101720002832000E28142D6E000E29142E6EFE0E87
:101730002A142F6E2D502E102F10D8B40CD0ECD7A9
:101740002B2A010E2826000E2922000E2A22D890CC
:101750002A3229322832000E28142D6E000E291448
:101760002E6EFF0E2A142F6E2D502E102F10D8B46F
:1017700006D0E6D72B06D890283629362A3629BE39
:1017800003D0020E2B60F6D72BA0299ED8902B32C7
:101790002B502A122C50D8A42A8E28C028F029C0F9
:1017A00029F02AC02AF01200000E316E000E306EB1
:1017B000315046E1060E305CD8B0120030C028F03F
:1017C00031C029F0000E2B6E150E2A6EC7EC0EF0FC
:1017D000000E2824D96E010E2920DA6E010EDB508E
:1017E00018E1030EDE5CD8B014D030C028F031C050
:1017F00029F0000E2B6E150E2A6EC7EC0EF0000EAF
:101800002824D96E010E2920DA6EDE2A000EDD2290
:1018100014D030C028F031C029F0000E2B6E150E08
:101820002A6EC7EC0EF0000E2824D96E010E292076
:10183000DA6E000EDE6E000EDD6E304A312AB8D749
:1018400012000600FACF01F0FBCF02F0E9CF03F05F
:10185000EACF04F0E1CF05F0E2CF06F0D9CF07F0F0
:10186000DACF08F0F3CF09F0F4CF0AF0F6CF0BF09F
:10187000F7CF0CF0F8CF0DF0F5CF0EF038C00FF029
:1018800039C010F03AC011F03BC012F012C03BF06A
:1018900011C03AF010C039F00FC038F00EC0F5FF9B
:1018A0000DC0F8FF0CC0F7FF0BC0F6FF0AC0F4FF35
:1018B00009C0F3FF08C0DAFF07C0D9FF06C0E2FF86
:1018C00005C0E1FF04C0EAFF03C0E9FF02C0FBFF5F
:1018D00001C0FAFF389211002AAE16D028C02EF0AF
:1018E00029C02FF02AC030F02E1E2F1E301E2E2AA7
:1018F000000E2F223022000E2E24286E000E2F20E4
:10190000296E800E30202A6E2DAE16D02BC02EF000
:101910002CC02FF02DC030F02E1E2F1E301E2E2A70
:10192000000E2F223022000E2E242B6E000E2F20B0
:101930002C6E800E30202D6E000E281A000E291AF3
:10194000800E2A1A000E2B1A000E2C1A800E2D1A49
:101950002B50285C2C5029582D502A58D8B002D032
:10196000D8901200D88012000000313200310000FF
:10197000320000A4069808080701000100020034A4
:10198000000035000036000046054006A4060100B0
:1019900001000000380000390000313000E8034049
:1019A000060807010001000200313600313700311E
:1019B00038004006B004DC05FFFFFFFF00003230B6
:1019C0000032310032320034081405E803FFFFFF13
:1019D000FF02003234003235003236006C077805E1
:1019E000E803FFFFFFFF000E356E8E0E346E000120
:1019F0008DAF11D08D1F8C1F8B1F8A6D000E8B2316
:101A00008C238D23010E356E06D0D8908D338C3308
:101A10008B338A33342A000E8A158E6F000E8B1595
:101A20008F6F000E8C15906FFF0E8D15916F8E517C
:101A30008F1190119111D8A4E8D78AC028F08BC0DB
:101A400029F08CC02AF034C02BF035C02CF07DEC8E
:101A50000BF028C08AF029C08BF02AC08CF012004D
:101A6000285029102A10D8A409D02BC0D9FF2CC087
:101A7000DAFF000EDE6E000EDD6E12002A507F0BC4
:101A80002D6E2E6AD8902D362E362BC0D9FF2CC045
:101A9000DAFF2DC0DEFF2EC0DDFF29AE03D02D6A98
:101AA0002D2A01D02D6A2D502BC0D9FF2CC0DAFF72
:101AB000DE12000EDD122BC0D9FF2CC0DAFF820E21
:101AC000DE26FF0EDD222A802A822A842A862A88A0
:101AD0002A8A2A9C299E1200680EF66E190EF76E4D
:101AE000000EF86E01EE00F010EE7EF00900F5CF6A
:101AF000EEFFE550E150FAE11C0EF66E1E0EF76E99
:101B0000000EF86E00EEBFF010EE06F00900F5CF03
:101B1000EEFFE550E150FAE102EE00F011EE00F0C8
:101B2000EE6AE550E150FCE1E250FAE1376A366ACC
:101B300038903892000EF86E0001C4EF0AF02EC003
:101B400032F02FC033F002D0324A332A32C0D9FFEC
:101B500033C0DAFFDF50D8B405D0F6D7324A332A83
:101B6000304A312A30C0F6FF31C0F7FFF86A32C080
:101B7000D9FF33C0DAFF020EF76403D00800F55036
:101B800005D0F6CFE1FFF7CFE2FFE750DF6EDF5081
:101B9000D8B41200E3D72EC028F02FC029F061EC92
:101BA0000EF028C031F029C032F0000E346E000E65
:101BB000336E11D033502E24D96E34502F20DA6E6C
:101BC000DF50356E355008EC0FF00D0E3518D8B4D7
:101BD0001200334A342A3150335C3450800A306E5C
:101BE0003250800A3058D8B01200E4D7000E2D6E63
:101BF000000E2C6E2A502B10D8B41CD0010E2E6E65
:101C000004D0D8902A362B362E2A2BAEFAD7D8906D
:101C10002C362D362A50285C2B502958D8A005D0B8
:101C20002A50285E2B50295A2C80D8902B322A32E9
:101C30002E2EEDD72CC028F02DC029F01200000167
:101C40009D519E119F11D8B406D0000E9D1B000E11
:101C50009E1B800E9F1B9AC06FF09BC070F09CC0B3
:101C600071F09DC072F09EC073F09FC074F000ECE4
:101C700007F06FC09AF070C09BF071C09CF012002A
:101C800031503210D8B418D0010E336E04D0D89031
:101C900031363236332A32AEFAD731502F5C3250D9
:101CA0003058D8A004D031502F5E3250305AD890DE
:101CB00032323132332EF1D72FC02FF030C030F016
:101CC000120028C02CF029C02DF002D02C4A2D2A59
:101CD0002CC0D9FF2DC0DAFFDF50D8A4F7D728C019
:101CE0002AF029C02BF02A1E2B1E2A4A2B2A2C5000
:101CF0002A24286E2D502B20296E1200000E336EE0
:101D000031AE06D0306C311ED8B0312A010E336EA0
:101D100030C028F031C029F02A6A8E0E2B6E33C0F5
:101D20002CF07DEC0BF028C030F029C031F02AC037
:101D300032F01200B886AC84330EAF6E000EB06E77
:101D4000AC98AB8EAC8A949C948E030E296E8A0E4E
:101D5000286E560EE82EFED7282EFCD7292EFAD74D
:101D6000120028C02EF029C02FF008D02EC0D9FFB5
:101D70002FC0DAFF2AC0DFFF2E4A2F2A2C06D8A058
:101D80002D062C28F3E12D28D8B41200EFD72850C7
:101D90002A02F3CF2CF0F4CF2DF028502B02F35071
:101DA0002D2629502A02F3502D262CC028F02DC0B4
:101DB00029F01200285029102A10D8B406D0000E9D
:101DC000281A000E291A800E2A1A28C028F029C0C5
:101DD00029F02AC02AF01200000E286E020E296E89
:101DE000000E2B6E000E2A6E010E2D6E000E2C6E54
:101DF000B1EC0EF012009B8E9B9C9B909B929B944F
:101E00009B969B98D39ED3508F0B5009D36E120094
:101E1000286EACA2FED728C0ADFF120010493F00CB
:021E2000803F01
:020000040020DA
:08000000FFFFFFFFFFFFFFFF00
:020000040030CA
:0E000000FF891F1EFF8281FF0FC00FE00F401F
:00000001FF
